{
  "_format": "hh-sol-artifact-1",
  "contractName": "PreSale",
  "sourceName": "contracts/PreSale.sol",
  "abi": [
    {
      "inputs": [],
      "stateMutability": "nonpayable",
      "type": "constructor"
    },
    {
      "anonymous": false,
      "inputs": [
        {
          "indexed": false,
          "internalType": "uint256",
          "name": "round",
          "type": "uint256"
        },
        {
          "indexed": false,
          "internalType": "uint256",
          "name": "amount",
          "type": "uint256"
        },
        {
          "indexed": false,
          "internalType": "uint256",
          "name": "amount_token",
          "type": "uint256"
        },
        {
          "indexed": false,
          "internalType": "uint256",
          "name": "price",
          "type": "uint256"
        },
        {
          "indexed": false,
          "internalType": "string",
          "name": "productName",
          "type": "string"
        }
      ],
      "name": "BUY_EVENT",
      "type": "event"
    },
    {
      "anonymous": false,
      "inputs": [
        {
          "indexed": true,
          "internalType": "address",
          "name": "user",
          "type": "address"
        },
        {
          "indexed": false,
          "internalType": "uint256",
          "name": "amount",
          "type": "uint256"
        },
        {
          "indexed": false,
          "internalType": "string",
          "name": "productName",
          "type": "string"
        }
      ],
      "name": "COMMISSION_EVENT",
      "type": "event"
    },
    {
      "anonymous": false,
      "inputs": [
        {
          "indexed": false,
          "internalType": "address",
          "name": "account",
          "type": "address"
        }
      ],
      "name": "Paused",
      "type": "event"
    },
    {
      "anonymous": false,
      "inputs": [
        {
          "indexed": true,
          "internalType": "bytes32",
          "name": "role",
          "type": "bytes32"
        },
        {
          "indexed": true,
          "internalType": "bytes32",
          "name": "previousAdminRole",
          "type": "bytes32"
        },
        {
          "indexed": true,
          "internalType": "bytes32",
          "name": "newAdminRole",
          "type": "bytes32"
        }
      ],
      "name": "RoleAdminChanged",
      "type": "event"
    },
    {
      "anonymous": false,
      "inputs": [
        {
          "indexed": true,
          "internalType": "bytes32",
          "name": "role",
          "type": "bytes32"
        },
        {
          "indexed": true,
          "internalType": "address",
          "name": "account",
          "type": "address"
        },
        {
          "indexed": true,
          "internalType": "address",
          "name": "sender",
          "type": "address"
        }
      ],
      "name": "RoleGranted",
      "type": "event"
    },
    {
      "anonymous": false,
      "inputs": [
        {
          "indexed": true,
          "internalType": "bytes32",
          "name": "role",
          "type": "bytes32"
        },
        {
          "indexed": true,
          "internalType": "address",
          "name": "account",
          "type": "address"
        },
        {
          "indexed": true,
          "internalType": "address",
          "name": "sender",
          "type": "address"
        }
      ],
      "name": "RoleRevoked",
      "type": "event"
    },
    {
      "anonymous": false,
      "inputs": [
        {
          "indexed": false,
          "internalType": "address",
          "name": "account",
          "type": "address"
        }
      ],
      "name": "Unpaused",
      "type": "event"
    },
    {
      "anonymous": false,
      "inputs": [
        {
          "indexed": false,
          "internalType": "uint256",
          "name": "round",
          "type": "uint256"
        },
        {
          "indexed": false,
          "internalType": "uint256",
          "name": "amount",
          "type": "uint256"
        },
        {
          "indexed": false,
          "internalType": "string",
          "name": "productName",
          "type": "string"
        }
      ],
      "name": "Vesting",
      "type": "event"
    },
    {
      "inputs": [],
      "name": "DEFAULT_ADMIN_ROLE",
      "outputs": [
        {
          "internalType": "bytes32",
          "name": "",
          "type": "bytes32"
        }
      ],
      "stateMutability": "view",
      "type": "function"
    },
    {
      "inputs": [],
      "name": "MODERATOR",
      "outputs": [
        {
          "internalType": "bytes32",
          "name": "",
          "type": "bytes32"
        }
      ],
      "stateMutability": "view",
      "type": "function"
    },
    {
      "inputs": [],
      "name": "USER",
      "outputs": [
        {
          "internalType": "address",
          "name": "",
          "type": "address"
        }
      ],
      "stateMutability": "view",
      "type": "function"
    },
    {
      "inputs": [
        {
          "internalType": "uint256",
          "name": "_round",
          "type": "uint256"
        },
        {
          "internalType": "uint256",
          "name": "_amount",
          "type": "uint256"
        }
      ],
      "name": "buyToken",
      "outputs": [],
      "stateMutability": "nonpayable",
      "type": "function"
    },
    {
      "inputs": [
        {
          "internalType": "address",
          "name": "_tokenAddress",
          "type": "address"
        }
      ],
      "name": "clearUnknownToken",
      "outputs": [],
      "stateMutability": "nonpayable",
      "type": "function"
    },
    {
      "inputs": [],
      "name": "getLockTime",
      "outputs": [
        {
          "internalType": "uint256",
          "name": "",
          "type": "uint256"
        }
      ],
      "stateMutability": "view",
      "type": "function"
    },
    {
      "inputs": [
        {
          "internalType": "bytes32",
          "name": "role",
          "type": "bytes32"
        }
      ],
      "name": "getRoleAdmin",
      "outputs": [
        {
          "internalType": "bytes32",
          "name": "",
          "type": "bytes32"
        }
      ],
      "stateMutability": "view",
      "type": "function"
    },
    {
      "inputs": [
        {
          "internalType": "uint256",
          "name": "_round",
          "type": "uint256"
        }
      ],
      "name": "getRoundDetail",
      "outputs": [
        {
          "components": [
            {
              "internalType": "uint256",
              "name": "listingTime",
              "type": "uint256"
            },
            {
              "internalType": "uint256",
              "name": "cliffTime",
              "type": "uint256"
            },
            {
              "internalType": "uint256",
              "name": "roundPrice",
              "type": "uint256"
            },
            {
              "internalType": "uint256",
              "name": "maxSupply",
              "type": "uint256"
            },
            {
              "internalType": "uint256",
              "name": "totalSellToken",
              "type": "uint256"
            },
            {
              "internalType": "uint256",
              "name": "totalPaymentToken",
              "type": "uint256"
            },
            {
              "internalType": "uint256",
              "name": "totalCommission",
              "type": "uint256"
            },
            {
              "internalType": "uint256",
              "name": "vestingPercent",
              "type": "uint256"
            },
            {
              "internalType": "bool",
              "name": "enableSale",
              "type": "bool"
            },
            {
              "internalType": "bool",
              "name": "enableVesting",
              "type": "bool"
            }
          ],
          "internalType": "struct PreSale.RoundDetail",
          "name": "",
          "type": "tuple"
        }
      ],
      "stateMutability": "view",
      "type": "function"
    },
    {
      "inputs": [],
      "name": "getTokenPayment",
      "outputs": [
        {
          "internalType": "address",
          "name": "",
          "type": "address"
        }
      ],
      "stateMutability": "view",
      "type": "function"
    },
    {
      "inputs": [],
      "name": "getTokenSale",
      "outputs": [
        {
          "internalType": "address",
          "name": "",
          "type": "address"
        }
      ],
      "stateMutability": "view",
      "type": "function"
    },
    {
      "inputs": [],
      "name": "getUser",
      "outputs": [
        {
          "internalType": "address",
          "name": "",
          "type": "address"
        }
      ],
      "stateMutability": "view",
      "type": "function"
    },
    {
      "inputs": [
        {
          "internalType": "address",
          "name": "_account",
          "type": "address"
        }
      ],
      "name": "getUserAffiliate",
      "outputs": [
        {
          "internalType": "uint256",
          "name": "",
          "type": "uint256"
        }
      ],
      "stateMutability": "view",
      "type": "function"
    },
    {
      "inputs": [
        {
          "internalType": "uint256",
          "name": "_round",
          "type": "uint256"
        },
        {
          "internalType": "address",
          "name": "_account",
          "type": "address"
        }
      ],
      "name": "getUserRoundDetail",
      "outputs": [
        {
          "components": [
            {
              "internalType": "uint256",
              "name": "roundPrice",
              "type": "uint256"
            },
            {
              "internalType": "uint256",
              "name": "amountToken",
              "type": "uint256"
            },
            {
              "internalType": "uint256",
              "name": "amountPaymentToken",
              "type": "uint256"
            },
            {
              "internalType": "uint256",
              "name": "amountClaimed",
              "type": "uint256"
            },
            {
              "internalType": "uint256",
              "name": "userNextClaim",
              "type": "uint256"
            }
          ],
          "internalType": "struct PreSale.UserRound",
          "name": "",
          "type": "tuple"
        }
      ],
      "stateMutability": "view",
      "type": "function"
    },
    {
      "inputs": [
        {
          "internalType": "bytes32",
          "name": "role",
          "type": "bytes32"
        },
        {
          "internalType": "address",
          "name": "account",
          "type": "address"
        }
      ],
      "name": "grantRole",
      "outputs": [],
      "stateMutability": "nonpayable",
      "type": "function"
    },
    {
      "inputs": [
        {
          "internalType": "bytes32",
          "name": "role",
          "type": "bytes32"
        },
        {
          "internalType": "address",
          "name": "account",
          "type": "address"
        }
      ],
      "name": "hasRole",
      "outputs": [
        {
          "internalType": "bool",
          "name": "",
          "type": "bool"
        }
      ],
      "stateMutability": "view",
      "type": "function"
    },
    {
      "inputs": [],
      "name": "lockTime",
      "outputs": [
        {
          "internalType": "uint256",
          "name": "",
          "type": "uint256"
        }
      ],
      "stateMutability": "view",
      "type": "function"
    },
    {
      "inputs": [],
      "name": "pause",
      "outputs": [],
      "stateMutability": "nonpayable",
      "type": "function"
    },
    {
      "inputs": [],
      "name": "paused",
      "outputs": [
        {
          "internalType": "bool",
          "name": "",
          "type": "bool"
        }
      ],
      "stateMutability": "view",
      "type": "function"
    },
    {
      "inputs": [],
      "name": "productName",
      "outputs": [
        {
          "internalType": "string",
          "name": "",
          "type": "string"
        }
      ],
      "stateMutability": "view",
      "type": "function"
    },
    {
      "inputs": [],
      "name": "receiver",
      "outputs": [
        {
          "internalType": "address",
          "name": "",
          "type": "address"
        }
      ],
      "stateMutability": "view",
      "type": "function"
    },
    {
      "inputs": [
        {
          "internalType": "uint256",
          "name": "",
          "type": "uint256"
        }
      ],
      "name": "refReward",
      "outputs": [
        {
          "internalType": "uint256",
          "name": "",
          "type": "uint256"
        }
      ],
      "stateMutability": "view",
      "type": "function"
    },
    {
      "inputs": [
        {
          "internalType": "bytes32",
          "name": "role",
          "type": "bytes32"
        },
        {
          "internalType": "address",
          "name": "account",
          "type": "address"
        }
      ],
      "name": "renounceRole",
      "outputs": [],
      "stateMutability": "nonpayable",
      "type": "function"
    },
    {
      "inputs": [
        {
          "internalType": "bytes32",
          "name": "role",
          "type": "bytes32"
        },
        {
          "internalType": "address",
          "name": "account",
          "type": "address"
        }
      ],
      "name": "revokeRole",
      "outputs": [],
      "stateMutability": "nonpayable",
      "type": "function"
    },
    {
      "inputs": [],
      "name": "round",
      "outputs": [
        {
          "internalType": "uint256",
          "name": "",
          "type": "uint256"
        }
      ],
      "stateMutability": "view",
      "type": "function"
    },
    {
      "inputs": [
        {
          "internalType": "uint256",
          "name": "",
          "type": "uint256"
        }
      ],
      "name": "roundDetail",
      "outputs": [
        {
          "internalType": "uint256",
          "name": "listingTime",
          "type": "uint256"
        },
        {
          "internalType": "uint256",
          "name": "cliffTime",
          "type": "uint256"
        },
        {
          "internalType": "uint256",
          "name": "roundPrice",
          "type": "uint256"
        },
        {
          "internalType": "uint256",
          "name": "maxSupply",
          "type": "uint256"
        },
        {
          "internalType": "uint256",
          "name": "totalSellToken",
          "type": "uint256"
        },
        {
          "internalType": "uint256",
          "name": "totalPaymentToken",
          "type": "uint256"
        },
        {
          "internalType": "uint256",
          "name": "totalCommission",
          "type": "uint256"
        },
        {
          "internalType": "uint256",
          "name": "vestingPercent",
          "type": "uint256"
        },
        {
          "internalType": "bool",
          "name": "enableSale",
          "type": "bool"
        },
        {
          "internalType": "bool",
          "name": "enableVesting",
          "type": "bool"
        }
      ],
      "stateMutability": "view",
      "type": "function"
    },
    {
      "inputs": [
        {
          "internalType": "uint256",
          "name": "_lockTime",
          "type": "uint256"
        }
      ],
      "name": "setLockTime",
      "outputs": [],
      "stateMutability": "nonpayable",
      "type": "function"
    },
    {
      "inputs": [
        {
          "internalType": "address",
          "name": "_address",
          "type": "address"
        }
      ],
      "name": "setReceiver",
      "outputs": [],
      "stateMutability": "nonpayable",
      "type": "function"
    },
    {
      "inputs": [
        {
          "internalType": "uint256[]",
          "name": "_refReward",
          "type": "uint256[]"
        }
      ],
      "name": "setRefReward",
      "outputs": [],
      "stateMutability": "nonpayable",
      "type": "function"
    },
    {
      "inputs": [
        {
          "internalType": "uint256",
          "name": "_round",
          "type": "uint256"
        },
        {
          "internalType": "uint256",
          "name": "listingTime",
          "type": "uint256"
        },
        {
          "internalType": "uint256",
          "name": "cliffTime",
          "type": "uint256"
        },
        {
          "internalType": "uint256",
          "name": "roundPrice",
          "type": "uint256"
        },
        {
          "internalType": "uint256",
          "name": "maxSupply",
          "type": "uint256"
        },
        {
          "internalType": "uint256",
          "name": "totalSellToken",
          "type": "uint256"
        },
        {
          "internalType": "uint256",
          "name": "totalPaymentToken",
          "type": "uint256"
        },
        {
          "internalType": "uint256",
          "name": "totalCommission",
          "type": "uint256"
        },
        {
          "internalType": "uint256",
          "name": "vestingPercent",
          "type": "uint256"
        },
        {
          "internalType": "bool",
          "name": "enableSale",
          "type": "bool"
        },
        {
          "internalType": "bool",
          "name": "enableVesting",
          "type": "bool"
        }
      ],
      "name": "setRound",
      "outputs": [],
      "stateMutability": "nonpayable",
      "type": "function"
    },
    {
      "inputs": [
        {
          "internalType": "address",
          "name": "_token",
          "type": "address"
        }
      ],
      "name": "setToken",
      "outputs": [],
      "stateMutability": "nonpayable",
      "type": "function"
    },
    {
      "inputs": [
        {
          "internalType": "address",
          "name": "_tokenPayment",
          "type": "address"
        }
      ],
      "name": "setTokenPayment",
      "outputs": [],
      "stateMutability": "nonpayable",
      "type": "function"
    },
    {
      "inputs": [
        {
          "internalType": "address",
          "name": "_newAddress",
          "type": "address"
        }
      ],
      "name": "setUser",
      "outputs": [],
      "stateMutability": "nonpayable",
      "type": "function"
    },
    {
      "inputs": [
        {
          "internalType": "bytes4",
          "name": "interfaceId",
          "type": "bytes4"
        }
      ],
      "name": "supportsInterface",
      "outputs": [
        {
          "internalType": "bool",
          "name": "",
          "type": "bool"
        }
      ],
      "stateMutability": "view",
      "type": "function"
    },
    {
      "inputs": [],
      "name": "tokenPayment",
      "outputs": [
        {
          "internalType": "address",
          "name": "",
          "type": "address"
        }
      ],
      "stateMutability": "view",
      "type": "function"
    },
    {
      "inputs": [],
      "name": "unpause",
      "outputs": [],
      "stateMutability": "nonpayable",
      "type": "function"
    },
    {
      "inputs": [
        {
          "internalType": "address",
          "name": "",
          "type": "address"
        }
      ],
      "name": "userAffiliateAmount",
      "outputs": [
        {
          "internalType": "uint256",
          "name": "",
          "type": "uint256"
        }
      ],
      "stateMutability": "view",
      "type": "function"
    },
    {
      "inputs": [
        {
          "internalType": "address",
          "name": "",
          "type": "address"
        },
        {
          "internalType": "uint256",
          "name": "",
          "type": "uint256"
        }
      ],
      "name": "userRoundDetail",
      "outputs": [
        {
          "internalType": "uint256",
          "name": "roundPrice",
          "type": "uint256"
        },
        {
          "internalType": "uint256",
          "name": "amountToken",
          "type": "uint256"
        },
        {
          "internalType": "uint256",
          "name": "amountPaymentToken",
          "type": "uint256"
        },
        {
          "internalType": "uint256",
          "name": "amountClaimed",
          "type": "uint256"
        },
        {
          "internalType": "uint256",
          "name": "userNextClaim",
          "type": "uint256"
        }
      ],
      "stateMutability": "view",
      "type": "function"
    },
    {
      "inputs": [
        {
          "internalType": "uint256",
          "name": "_round",
          "type": "uint256"
        }
      ],
      "name": "vestingToken",
      "outputs": [],
      "stateMutability": "nonpayable",
      "type": "function"
    },
    {
      "stateMutability": "payable",
      "type": "receive"
    }
  ],
  "bytecode": "0x60e060405260056080908152600360a0819052600260c0526200002591600b916200024d565b506000600c5562278d00600d553480156200003f57600080fd5b506001805460ff19168155600255600780546001600160a01b031916339081179091556200008f907f58c8e11deab7910e89bf18a1168c6e6ef28748f00fd3094549459f01cec5e0aa90620001ac565b6200009c600033620001ac565b6000600c55604080518082019091526007815266546f6e6361707960c81b6020820152600a90620000ce908262000360565b506040805161014081018252600080825260208083018281526548c27395000084860190815269d3c21bcecceda1000000606086019081526080860185815260a0870186815260c08801878152600360e08a018181526001610100808d018281526101208e018d8152600c548e5260049c8d90529e909c209c518d559851908c0155955160028b0155935193890193909355905194870194909455925160058601559151600685015590516007840155905160089092018054935161ffff1990941692151561ff00191692909217921515029190911790556200042c565b6000828152602081815260408083206001600160a01b038516845290915290205460ff1662000249576000828152602081815260408083206001600160a01b03851684529091529020805460ff19166001179055620002083390565b6001600160a01b0316816001600160a01b0316837f2f8788117e7eff1d82e926ec794901d17c78024a50270940304540a733656f0d60405160405180910390a45b5050565b82805482825590600052602060002090810192821562000290579160200282015b8281111562000290578251829060ff169055916020019190600101906200026e565b506200029e929150620002a2565b5090565b5b808211156200029e5760008155600101620002a3565b634e487b7160e01b600052604160045260246000fd5b600181811c90821680620002e457607f821691505b6020821081036200030557634e487b7160e01b600052602260045260246000fd5b50919050565b601f8211156200035b576000816000526020600020601f850160051c81016020861015620003365750805b601f850160051c820191505b81811015620003575782815560010162000342565b5050505b505050565b81516001600160401b038111156200037c576200037c620002b9565b62000394816200038d8454620002cf565b846200030b565b602080601f831160018114620003cc5760008415620003b35750858301515b600019600386901b1c1916600185901b17855562000357565b600085815260208120601f198616915b82811015620003fd57888601518255948401946001909101908401620003dc565b50858210156200041c5787850151600019600388901b60f8161c191681555b5050505050600190811b01905550565b612379806200043c6000396000f3fe6080604052600436106102295760003560e01c80638456cb5911610123578063c0a4d64d116100ab578063e418310f1161006f578063e418310f1461078a578063e51198c3146107aa578063ee8e3144146107c8578063f7260d3e1461082a578063fd9f1add1461084a57600080fd5b8063c0a4d64d1461063f578063c1e3425f14610654578063d4679e7314610674578063d547741f14610734578063e23601d91461075457600080fd5b8063a217fddf116100f2578063a217fddf1461059f578063a4f3a7c7146105b4578063a8504c8f146105d4578063a9896b5614610601578063ae04d45d1461061f57600080fd5b80638456cb591461052a578063858ced351461053f5780638a06ec281461055f57806391d148541461057f57600080fd5b806334b4e625116101b1578063718da7ee11610175578063718da7ee1461041757806379621b2a146104375780637f7650eb146104b257806381e167cf146104d4578063832880e71461050c57600080fd5b806334b4e6251461037657806336568abe146103aa57806337e429be146103ca5780633f4ba83a146103ea5780635c975abb146103ff57600080fd5b8063144fa6d7116101f8578063144fa6d7146102d0578063146ca531146102f0578063248a9ca3146103065780632f2ff15d14610336578063341095331461035657600080fd5b806301af88ab1461023557806301ffc9a714610268578063057466ea146102985780630d668087146102ba57600080fd5b3661023057005b600080fd5b34801561024157600080fd5b50610255610250366004611d18565b610877565b6040519081526020015b60405180910390f35b34801561027457600080fd5b50610288610283366004611d31565b610898565b604051901515815260200161025f565b3480156102a457600080fd5b506102b86102b3366004611d5b565b6108cf565b005b3480156102c657600080fd5b50610255600d5481565b3480156102dc57600080fd5b506102b86102eb366004611d92565b610e27565b3480156102fc57600080fd5b50610255600c5481565b34801561031257600080fd5b50610255610321366004611d18565b60009081526020819052604090206001015490565b34801561034257600080fd5b506102b8610351366004611daf565b610e55565b34801561036257600080fd5b506102b8610371366004611ded565b610e7f565b34801561038257600080fd5b506102557f58c8e11deab7910e89bf18a1168c6e6ef28748f00fd3094549459f01cec5e0aa81565b3480156103b657600080fd5b506102b86103c5366004611daf565b610f4d565b3480156103d657600080fd5b506102b86103e5366004611d92565b610fc7565b3480156103f657600080fd5b506102b86110b7565b34801561040b57600080fd5b5060015460ff16610288565b34801561042357600080fd5b506102b8610432366004611d92565b6110cd565b34801561044357600080fd5b5061048a610452366004611e80565b600360208181526000938452604080852090915291835291208054600182015460028301549383015460049093015491939092909185565b604080519586526020860194909452928401919091526060830152608082015260a00161025f565b3480156104be57600080fd5b506104c76110fb565b60405161025f9190611ed0565b3480156104e057600080fd5b506009546104f4906001600160a01b031681565b6040516001600160a01b03909116815260200161025f565b34801561051857600080fd5b506009546001600160a01b03166104f4565b34801561053657600080fd5b506102b8611189565b34801561054b57600080fd5b506102b861055a366004611d92565b61119c565b34801561056b57600080fd5b506102b861057a366004611f19565b6111ca565b34801561058b57600080fd5b5061028861059a366004611daf565b6111e8565b3480156105ab57600080fd5b50610255600081565b3480156105c057600080fd5b506008546104f4906001600160a01b031681565b3480156105e057600080fd5b506105f46105ef366004611d18565b611211565b60405161025f9190611fd7565b34801561060d57600080fd5b506006546001600160a01b03166104f4565b34801561062b57600080fd5b506102b861063a366004611d18565b6112fa565b34801561064b57600080fd5b50600d54610255565b34801561066057600080fd5b506102b861066f366004611d92565b61130b565b34801561068057600080fd5b506106e661068f366004611d18565b60046020819052600091825260409091208054600182015460028301546003840154948401546005850154600686015460078701546008909701549597949693959293919290919060ff808216916101009004168a565b604080519a8b5260208b0199909952978901969096526060880194909452608087019290925260a086015260c085015260e0840152151561010083015215156101208201526101400161025f565b34801561074057600080fd5b506102b861074f366004611daf565b611339565b34801561076057600080fd5b5061025561076f366004611d92565b6001600160a01b031660009081526005602052604090205490565b34801561079657600080fd5b506102b86107a5366004611d18565b61135e565b3480156107b657600080fd5b506008546001600160a01b03166104f4565b3480156107d457600080fd5b506107e86107e3366004611daf565b61177a565b60405161025f9190600060a082019050825182526020830151602083015260408301516040830152606083015160608301526080830151608083015292915050565b34801561083657600080fd5b506007546104f4906001600160a01b031681565b34801561085657600080fd5b50610255610865366004611d92565b60056020526000908152604090205481565b600b818154811061088757600080fd5b600091825260209091200154905081565b60006001600160e01b03198216637965db0b60e01b14806108c957506301ffc9a760e01b6001600160e01b03198316145b92915050565b6108d761180b565b6108df611853565b600082815260046020908152604080832033845260038352818420868552909252909120600882015460ff166109515760405162461bcd60e51b815260206004820152601260248201527153616c65206973206e6f7420656e61626c6560701b60448201526064015b60405180910390fd5b600282015483906000906109779061097184670de0b6b3a76400006118aa565b906118bd565b9050836003015481856004015461098e9190612067565b106109a05760088401805460ff191690555b83600201548510156109e65760405162461bcd60e51b815260206004820152600f60248201526e26b4b710313abc9018903a37b5b2b760891b6044820152606401610948565b6008546040516370a0823160e01b815233600482015286916001600160a01b0316906370a0823190602401602060405180830381865afa158015610a2e573d6000803e3d6000fd5b505050506040513d601f19601f82011682018060405250810190610a52919061207a565b1015610a975760405162461bcd60e51b8152602060048201526014602482015273496e73756666696369656e742062616c616e636560601b6044820152606401610948565b600954604051635a7db53360e01b81523360048201526000916001600160a01b031690635a7db53390602401602060405180830381865afa158015610ae0573d6000803e3d6000fd5b505050506040513d601f19601f82011682018060405250810190610b049190612093565b905060005b600b54811015610cf3576001600160a01b03821615610ceb576000610b596064610971600b8581548110610b3f57610b3f6120b0565b90600052602060002001548b6118aa90919063ffffffff16565b9050610b6585826118c9565b6008546040516323b872dd60e01b81523360048201526001600160a01b038681166024830152604482018590529297509116906323b872dd906064016020604051808303816000875af1158015610bc0573d6000803e3d6000fd5b505050506040513d601f19601f82011682018060405250810190610be491906120c6565b50826001600160a01b03167e9ce06606f6c71871c7c1d2c58a3c395de3487f651e8eef52c2890ce643d2be82600a604051610c209291906121c1565b60405180910390a26001600160a01b038316600090815260056020526040902054610c4b90826118d5565b6001600160a01b0384811660008181526005602052604090819020939093556009549251635a7db53360e01b81526004810191909152911690635a7db53390602401602060405180830381865afa158015610caa573d6000803e3d6000fd5b505050506040513d601f19601f82011682018060405250810190610cce9190612093565b925080876006016000828254610ce49190612067565b9091555050505b600101610b09565b506008546007546040516323b872dd60e01b81523360048201526001600160a01b039182166024820152604481018690529116906323b872dd906064016020604051808303816000875af1158015610d4f573d6000803e3d6000fd5b505050506040513d601f19601f82011682018060405250810190610d7391906120c6565b507ff3876bf1022d86bb6dd7482f5b6e7ec4f8bfa2fb9a27cbef67c0a1ec0912a2e7600c5487848860020154600a604051610db29594939291906121e2565b60405180910390a16004850154610dc990836118d5565b60048601556005850154610ddd90876118d5565b60058601556001840154610df190836118d5565b60018501556002840154610e0590876118d5565b600280860191909155949094015490925550610e2391506118e19050565b5050565b6000610e32816118e8565b50600680546001600160a01b0319166001600160a01b0392909216919091179055565b600082815260208190526040902060010154610e70816118e8565b610e7a83836118f2565b505050565b6000610e8a816118e8565b5060408051610140810182529a8b526020808c019a8b528b8201998a5260608c0198895260808c0197885260a08c0196875260c08c0195865260e08c01948552921515610100808d019182529215156101208d0190815260009d8e5260049485905291909c209a518b55985160018b0155965160028a015594516003890155925193870193909355516005860155905160068501555160078401559251600890920180549151151590930261ff00199215159290921661ffff1990911617179055565b6001600160a01b0381163314610fbd5760405162461bcd60e51b815260206004820152602f60248201527f416363657373436f6e74726f6c3a2063616e206f6e6c792072656e6f756e636560448201526e103937b632b9903337b91039b2b63360891b6064820152608401610948565b610e238282611976565b6000610fd2816118e8565b6040516370a0823160e01b81523060048201526000906001600160a01b038416906370a0823190602401602060405180830381865afa158015611019573d6000803e3d6000fd5b505050506040513d601f19601f8201168201806040525081019061103d919061207a565b60405163a9059cbb60e01b8152336004820152602481018290529091506001600160a01b0384169063a9059cbb906044016020604051808303816000875af115801561108d573d6000803e3d6000fd5b505050506040513d601f19601f820116820180604052508101906110b191906120c6565b50505050565b60006110c2816118e8565b6110ca6119db565b50565b60006110d8816118e8565b50600780546001600160a01b0319166001600160a01b0392909216919091179055565b600a8054611108906120e3565b80601f0160208091040260200160405190810160405280929190818152602001828054611134906120e3565b80156111815780601f1061115657610100808354040283529160200191611181565b820191906000526020600020905b81548152906001019060200180831161116457829003601f168201915b505050505081565b6000611194816118e8565b6110ca611a2d565b60006111a7816118e8565b50600980546001600160a01b0319166001600160a01b0392909216919091179055565b60006111d5816118e8565b8151610e7a90600b906020850190611cb8565b6000918252602082815260408084206001600160a01b0393909316845291905290205460ff1690565b61126b60405180610140016040528060008152602001600081526020016000815260200160008152602001600081526020016000815260200160008152602001600081526020016000151581526020016000151581525090565b506000908152600460208181526040928390208351610140810185528154815260018201549281019290925260028101549382019390935260038301546060820152908201546080820152600582015460a0820152600682015460c0820152600782015460e082015260089091015460ff80821615156101008085019190915290910416151561012082015290565b6000611305816118e8565b50600d55565b6000611316816118e8565b50600880546001600160a01b0319166001600160a01b0392909216919091179055565b600082815260208190526040902060010154611354816118e8565b610e7a8383611976565b61136661180b565b61136e611853565b6000818152600460208181526040808420815161014081018352815481526001820154818501526002820154818401526003808301546060830152948201546080820152600582015460a0820152600682015460c0820152600782015460e082015260089091015460ff8082161515610100808501919091529091041615156101208201908152338652938352818520868652909252909220905161144a5760405162461bcd60e51b815260206004820152601260248201527156657374696e67206e6f7420656e61626c6560701b6044820152606401610948565b816020015142101561146e5760405162461bcd60e51b815260040161094890612218565b81602001516000036114b75760405162461bcd60e51b815260206004820152601260248201527110db1a5999881d1a5b59481b9bdd081cd95d60721b6044820152606401610948565b80600401546000036114ec5742826020015111156114e75760405162461bcd60e51b815260040161094890612218565b611510565b42816004015411156115105760405162461bcd60e51b815260040161094890612218565b600181015460e083015160009061152f906064906109719085906118aa565b6006546040516370a0823160e01b815230600482015291925082916001600160a01b03909116906370a0823190602401602060405180830381865afa15801561157c573d6000803e3d6000fd5b505050506040513d601f19601f820116820180604052508101906115a0919061207a565b10156115ee5760405162461bcd60e51b815260206004820152601b60248201527f436f6e7472616374206e6f7420656e6f7567682062616c616e636500000000006044820152606401610948565b818360030154106116385760405162461bcd60e51b8152602060048201526014602482015273165bdd481a185d994818db185a5b595908185b1b60621b6044820152606401610948565b818184600301546116499190612067565b111561166257600383015461165f9083906118c9565b90505b600383015461167190826118d5565b600384015560065460405163a9059cbb60e01b8152336004820152602481018390526001600160a01b039091169063a9059cbb906044016020604051808303816000875af11580156116c7573d6000803e3d6000fd5b505050506040513d601f19601f820116820180604052508101906116eb91906120c6565b507f3cd452c109720c4ae15f0008ec97ae38fe86705bd48b048fbb27eec48ed79e9b8582600a60405161172093929190612243565b60405180910390a1826004015460000361175057600d5484602001516117469190612067565b600484015561176c565b600d548360040160008282546117669190612067565b90915550505b505050506110ca6001600255565b6117ac6040518060a0016040528060008152602001600081526020016000815260200160008152602001600081525090565b506001600160a01b0316600090815260036020818152604080842094845293815291839020835160a081018552815481526001820154938101939093526002810154938301939093528201546060820152600490910154608082015290565b60015460ff16156118515760405162461bcd60e51b815260206004820152601060248201526f14185d5cd8589b194e881c185d5cd95960821b6044820152606401610948565b565b60028054036118a45760405162461bcd60e51b815260206004820152601f60248201527f5265656e7472616e637947756172643a207265656e7472616e742063616c6c006044820152606401610948565b60028055565b60006118b6828461226b565b9392505050565b60006118b68284612282565b60006118b682846122a4565b60006118b68284612067565b6001600255565b6110ca8133611a68565b6118fc82826111e8565b610e23576000828152602081815260408083206001600160a01b03851684529091529020805460ff191660011790556119323390565b6001600160a01b0316816001600160a01b0316837f2f8788117e7eff1d82e926ec794901d17c78024a50270940304540a733656f0d60405160405180910390a45050565b61198082826111e8565b15610e23576000828152602081815260408083206001600160a01b0385168085529252808320805460ff1916905551339285917ff6391f5c32d9c69d2a47ea670b442974b53935d1edc7fd64eb21e047a839171b9190a45050565b6119e3611ac1565b6001805460ff191690557f5db9ee0a495bf2e6ff9c91a7834c1ba4fdd244a5e8aa4e537bd38aeae4b073aa335b6040516001600160a01b03909116815260200160405180910390a1565b611a3561180b565b6001805460ff1916811790557f62e78cea01bee320cd4e420270b5ea74000d11b0c9f74754ebdbfc544b05a25833611a10565b611a7282826111e8565b610e2357611a7f81611b0a565b611a8a836020611b1c565b604051602001611a9b9291906122b7565b60408051601f198184030181529082905262461bcd60e51b825261094891600401611ed0565b60015460ff166118515760405162461bcd60e51b815260206004820152601460248201527314185d5cd8589b194e881b9bdd081c185d5cd95960621b6044820152606401610948565b60606108c96001600160a01b03831660145b60606000611b2b83600261226b565b611b36906002612067565b67ffffffffffffffff811115611b4e57611b4e611f03565b6040519080825280601f01601f191660200182016040528015611b78576020820181803683370190505b509050600360fc1b81600081518110611b9357611b936120b0565b60200101906001600160f81b031916908160001a905350600f60fb1b81600181518110611bc257611bc26120b0565b60200101906001600160f81b031916908160001a9053506000611be684600261226b565b611bf1906001612067565b90505b6001811115611c69576f181899199a1a9b1b9c1cb0b131b232b360811b85600f1660108110611c2557611c256120b0565b1a60f81b828281518110611c3b57611c3b6120b0565b60200101906001600160f81b031916908160001a90535060049490941c93611c628161232c565b9050611bf4565b5083156118b65760405162461bcd60e51b815260206004820181905260248201527f537472696e67733a20686578206c656e67746820696e73756666696369656e746044820152606401610948565b828054828255906000526020600020908101928215611cf3579160200282015b82811115611cf3578251825591602001919060010190611cd8565b50611cff929150611d03565b5090565b5b80821115611cff5760008155600101611d04565b600060208284031215611d2a57600080fd5b5035919050565b600060208284031215611d4357600080fd5b81356001600160e01b0319811681146118b657600080fd5b60008060408385031215611d6e57600080fd5b50508035926020909101359150565b6001600160a01b03811681146110ca57600080fd5b600060208284031215611da457600080fd5b81356118b681611d7d565b60008060408385031215611dc257600080fd5b823591506020830135611dd481611d7d565b809150509250929050565b80151581146110ca57600080fd5b60008060008060008060008060008060006101608c8e031215611e0f57600080fd5b8b359a5060208c0135995060408c0135985060608c0135975060808c0135965060a08c0135955060c08c0135945060e08c013593506101008c013592506101208c0135611e5b81611ddf565b91506101408c0135611e6c81611ddf565b809150509295989b509295989b9093969950565b60008060408385031215611e9357600080fd5b8235611e9e81611d7d565b946020939093013593505050565b60005b83811015611ec7578181015183820152602001611eaf565b50506000910152565b6020815260008251806020840152611eef816040850160208701611eac565b601f01601f19169190910160400192915050565b634e487b7160e01b600052604160045260246000fd5b60006020808385031215611f2c57600080fd5b823567ffffffffffffffff80821115611f4457600080fd5b818501915085601f830112611f5857600080fd5b813581811115611f6a57611f6a611f03565b8060051b604051601f19603f83011681018181108582111715611f8f57611f8f611f03565b604052918252848201925083810185019188831115611fad57600080fd5b938501935b82851015611fcb57843584529385019392850192611fb2565b98975050505050505050565b600061014082019050825182526020830151602083015260408301516040830152606083015160608301526080830151608083015260a083015160a083015260c083015160c083015260e083015160e08301526101008084015161203e8285018215159052565b5050610120928301511515919092015290565b634e487b7160e01b600052601160045260246000fd5b808201808211156108c9576108c9612051565b60006020828403121561208c57600080fd5b5051919050565b6000602082840312156120a557600080fd5b81516118b681611d7d565b634e487b7160e01b600052603260045260246000fd5b6000602082840312156120d857600080fd5b81516118b681611ddf565b600181811c908216806120f757607f821691505b60208210810361211757634e487b7160e01b600052602260045260246000fd5b50919050565b8054600090600181811c908083168061213757607f831692505b6020808410820361215857634e487b7160e01b600052602260045260246000fd5b838852602088018280156121735760018114612189576121b4565b60ff198716825285151560051b820197506121b4565b60008981526020902060005b878110156121ae57815484820152908601908401612195565b83019850505b5050505050505092915050565b8281526040602082015260006121da604083018461211d565b949350505050565b85815284602082015283604082015282606082015260a06080820152600061220d60a083018461211d565b979650505050505050565b60208082526011908201527056657374696e67206e6f7420726561647960781b604082015260600190565b838152826020820152606060408201526000612262606083018461211d565b95945050505050565b80820281158282048414176108c9576108c9612051565b60008261229f57634e487b7160e01b600052601260045260246000fd5b500490565b818103818111156108c9576108c9612051565b7f416363657373436f6e74726f6c3a206163636f756e74200000000000000000008152600083516122ef816017850160208801611eac565b7001034b99036b4b9b9b4b733903937b6329607d1b6017918401918201528351612320816028840160208801611eac565b01602801949350505050565b60008161233b5761233b612051565b50600019019056fea26469706673582212206b5bf3b13ccac80eff4efc5b7b87d798e83460fd909791e0fd09b90019b5925464736f6c63430008180033",
  "linkReferences": {},
  "deployedLinkReferences": {}
}