{
  "_format": "hh-sol-artifact-1",
  "contractName": "PrivateSale",
  "sourceName": "contracts/PrivateSale.sol",
  "abi": [
    {
      "inputs": [],
      "stateMutability": "nonpayable",
      "type": "constructor"
    },
    {
      "anonymous": false,
      "inputs": [
        {
          "indexed": false,
          "internalType": "uint256",
          "name": "round",
          "type": "uint256"
        },
        {
          "indexed": false,
          "internalType": "uint256",
          "name": "amount",
          "type": "uint256"
        },
        {
          "indexed": false,
          "internalType": "uint256",
          "name": "amount_token",
          "type": "uint256"
        },
        {
          "indexed": false,
          "internalType": "uint256",
          "name": "price",
          "type": "uint256"
        },
        {
          "indexed": false,
          "internalType": "string",
          "name": "productName",
          "type": "string"
        }
      ],
      "name": "BUY_EVENT",
      "type": "event"
    },
    {
      "anonymous": false,
      "inputs": [
        {
          "indexed": true,
          "internalType": "address",
          "name": "user",
          "type": "address"
        },
        {
          "indexed": false,
          "internalType": "uint256",
          "name": "amount",
          "type": "uint256"
        },
        {
          "indexed": false,
          "internalType": "string",
          "name": "productName",
          "type": "string"
        }
      ],
      "name": "COMMISSION_EVENT",
      "type": "event"
    },
    {
      "anonymous": false,
      "inputs": [
        {
          "indexed": false,
          "internalType": "uint256",
          "name": "round",
          "type": "uint256"
        },
        {
          "indexed": false,
          "internalType": "uint256",
          "name": "amount",
          "type": "uint256"
        },
        {
          "indexed": false,
          "internalType": "string",
          "name": "productName",
          "type": "string"
        }
      ],
      "name": "Claim",
      "type": "event"
    },
    {
      "anonymous": false,
      "inputs": [
        {
          "indexed": false,
          "internalType": "address",
          "name": "account",
          "type": "address"
        }
      ],
      "name": "Paused",
      "type": "event"
    },
    {
      "anonymous": false,
      "inputs": [
        {
          "indexed": true,
          "internalType": "bytes32",
          "name": "role",
          "type": "bytes32"
        },
        {
          "indexed": true,
          "internalType": "bytes32",
          "name": "previousAdminRole",
          "type": "bytes32"
        },
        {
          "indexed": true,
          "internalType": "bytes32",
          "name": "newAdminRole",
          "type": "bytes32"
        }
      ],
      "name": "RoleAdminChanged",
      "type": "event"
    },
    {
      "anonymous": false,
      "inputs": [
        {
          "indexed": true,
          "internalType": "bytes32",
          "name": "role",
          "type": "bytes32"
        },
        {
          "indexed": true,
          "internalType": "address",
          "name": "account",
          "type": "address"
        },
        {
          "indexed": true,
          "internalType": "address",
          "name": "sender",
          "type": "address"
        }
      ],
      "name": "RoleGranted",
      "type": "event"
    },
    {
      "anonymous": false,
      "inputs": [
        {
          "indexed": true,
          "internalType": "bytes32",
          "name": "role",
          "type": "bytes32"
        },
        {
          "indexed": true,
          "internalType": "address",
          "name": "account",
          "type": "address"
        },
        {
          "indexed": true,
          "internalType": "address",
          "name": "sender",
          "type": "address"
        }
      ],
      "name": "RoleRevoked",
      "type": "event"
    },
    {
      "anonymous": false,
      "inputs": [
        {
          "indexed": false,
          "internalType": "address",
          "name": "account",
          "type": "address"
        }
      ],
      "name": "Unpaused",
      "type": "event"
    },
    {
      "inputs": [],
      "name": "DEFAULT_ADMIN_ROLE",
      "outputs": [
        {
          "internalType": "bytes32",
          "name": "",
          "type": "bytes32"
        }
      ],
      "stateMutability": "view",
      "type": "function"
    },
    {
      "inputs": [],
      "name": "MODERATOR",
      "outputs": [
        {
          "internalType": "bytes32",
          "name": "",
          "type": "bytes32"
        }
      ],
      "stateMutability": "view",
      "type": "function"
    },
    {
      "inputs": [],
      "name": "USER",
      "outputs": [
        {
          "internalType": "address",
          "name": "",
          "type": "address"
        }
      ],
      "stateMutability": "view",
      "type": "function"
    },
    {
      "inputs": [
        {
          "internalType": "uint256",
          "name": "_round",
          "type": "uint256"
        },
        {
          "internalType": "uint256",
          "name": "_amount",
          "type": "uint256"
        }
      ],
      "name": "buyToken",
      "outputs": [],
      "stateMutability": "nonpayable",
      "type": "function"
    },
    {
      "inputs": [
        {
          "internalType": "uint256",
          "name": "_round",
          "type": "uint256"
        }
      ],
      "name": "claimToken",
      "outputs": [],
      "stateMutability": "nonpayable",
      "type": "function"
    },
    {
      "inputs": [
        {
          "internalType": "address",
          "name": "_tokenAddress",
          "type": "address"
        }
      ],
      "name": "clearUnknownToken",
      "outputs": [],
      "stateMutability": "nonpayable",
      "type": "function"
    },
    {
      "inputs": [],
      "name": "getLockTime",
      "outputs": [
        {
          "internalType": "uint256",
          "name": "",
          "type": "uint256"
        }
      ],
      "stateMutability": "view",
      "type": "function"
    },
    {
      "inputs": [
        {
          "internalType": "bytes32",
          "name": "role",
          "type": "bytes32"
        }
      ],
      "name": "getRoleAdmin",
      "outputs": [
        {
          "internalType": "bytes32",
          "name": "",
          "type": "bytes32"
        }
      ],
      "stateMutability": "view",
      "type": "function"
    },
    {
      "inputs": [
        {
          "internalType": "uint256",
          "name": "_round",
          "type": "uint256"
        }
      ],
      "name": "getRoundDetail",
      "outputs": [
        {
          "components": [
            {
              "internalType": "uint256",
              "name": "listingTime",
              "type": "uint256"
            },
            {
              "internalType": "uint256",
              "name": "cliffTime",
              "type": "uint256"
            },
            {
              "internalType": "uint256",
              "name": "roundPrice",
              "type": "uint256"
            },
            {
              "internalType": "uint256",
              "name": "maxSupply",
              "type": "uint256"
            },
            {
              "internalType": "uint256",
              "name": "totalSellToken",
              "type": "uint256"
            },
            {
              "internalType": "uint256",
              "name": "totalPaymentToken",
              "type": "uint256"
            },
            {
              "internalType": "uint256",
              "name": "totalCommission",
              "type": "uint256"
            },
            {
              "internalType": "uint256",
              "name": "vestingPercent",
              "type": "uint256"
            },
            {
              "internalType": "bool",
              "name": "enableSale",
              "type": "bool"
            },
            {
              "internalType": "bool",
              "name": "enableClaim",
              "type": "bool"
            }
          ],
          "internalType": "struct PrivateSale.RoundDetail",
          "name": "",
          "type": "tuple"
        }
      ],
      "stateMutability": "view",
      "type": "function"
    },
    {
      "inputs": [],
      "name": "getTokenPayment",
      "outputs": [
        {
          "internalType": "address",
          "name": "",
          "type": "address"
        }
      ],
      "stateMutability": "view",
      "type": "function"
    },
    {
      "inputs": [],
      "name": "getTokenSale",
      "outputs": [
        {
          "internalType": "address",
          "name": "",
          "type": "address"
        }
      ],
      "stateMutability": "view",
      "type": "function"
    },
    {
      "inputs": [],
      "name": "getUser",
      "outputs": [
        {
          "internalType": "address",
          "name": "",
          "type": "address"
        }
      ],
      "stateMutability": "view",
      "type": "function"
    },
    {
      "inputs": [
        {
          "internalType": "uint256",
          "name": "_round",
          "type": "uint256"
        },
        {
          "internalType": "address",
          "name": "_account",
          "type": "address"
        }
      ],
      "name": "getUserRoundDetail",
      "outputs": [
        {
          "components": [
            {
              "internalType": "uint256",
              "name": "roundPrice",
              "type": "uint256"
            },
            {
              "internalType": "uint256",
              "name": "amountToken",
              "type": "uint256"
            },
            {
              "internalType": "uint256",
              "name": "amountPaymentToken",
              "type": "uint256"
            },
            {
              "internalType": "uint256",
              "name": "amountClaimed",
              "type": "uint256"
            },
            {
              "internalType": "uint256",
              "name": "userNextClaim",
              "type": "uint256"
            }
          ],
          "internalType": "struct PrivateSale.UserRound",
          "name": "",
          "type": "tuple"
        }
      ],
      "stateMutability": "view",
      "type": "function"
    },
    {
      "inputs": [
        {
          "internalType": "address",
          "name": "_account",
          "type": "address"
        }
      ],
      "name": "getUserStatistic",
      "outputs": [
        {
          "components": [
            {
              "internalType": "uint256",
              "name": "amountToken",
              "type": "uint256"
            },
            {
              "internalType": "uint256",
              "name": "amountPaymentToken",
              "type": "uint256"
            },
            {
              "internalType": "uint256",
              "name": "amountCommission",
              "type": "uint256"
            },
            {
              "internalType": "uint256",
              "name": "amountClaimed",
              "type": "uint256"
            }
          ],
          "internalType": "struct PrivateSale.UserStatistic",
          "name": "",
          "type": "tuple"
        }
      ],
      "stateMutability": "view",
      "type": "function"
    },
    {
      "inputs": [
        {
          "internalType": "bytes32",
          "name": "role",
          "type": "bytes32"
        },
        {
          "internalType": "address",
          "name": "account",
          "type": "address"
        }
      ],
      "name": "grantRole",
      "outputs": [],
      "stateMutability": "nonpayable",
      "type": "function"
    },
    {
      "inputs": [
        {
          "internalType": "bytes32",
          "name": "role",
          "type": "bytes32"
        },
        {
          "internalType": "address",
          "name": "account",
          "type": "address"
        }
      ],
      "name": "hasRole",
      "outputs": [
        {
          "internalType": "bool",
          "name": "",
          "type": "bool"
        }
      ],
      "stateMutability": "view",
      "type": "function"
    },
    {
      "inputs": [],
      "name": "lockTime",
      "outputs": [
        {
          "internalType": "uint256",
          "name": "",
          "type": "uint256"
        }
      ],
      "stateMutability": "view",
      "type": "function"
    },
    {
      "inputs": [],
      "name": "pause",
      "outputs": [],
      "stateMutability": "nonpayable",
      "type": "function"
    },
    {
      "inputs": [],
      "name": "paused",
      "outputs": [
        {
          "internalType": "bool",
          "name": "",
          "type": "bool"
        }
      ],
      "stateMutability": "view",
      "type": "function"
    },
    {
      "inputs": [],
      "name": "productName",
      "outputs": [
        {
          "internalType": "string",
          "name": "",
          "type": "string"
        }
      ],
      "stateMutability": "view",
      "type": "function"
    },
    {
      "inputs": [],
      "name": "receiver",
      "outputs": [
        {
          "internalType": "address",
          "name": "",
          "type": "address"
        }
      ],
      "stateMutability": "view",
      "type": "function"
    },
    {
      "inputs": [
        {
          "internalType": "uint256",
          "name": "",
          "type": "uint256"
        }
      ],
      "name": "refReward",
      "outputs": [
        {
          "internalType": "uint256",
          "name": "",
          "type": "uint256"
        }
      ],
      "stateMutability": "view",
      "type": "function"
    },
    {
      "inputs": [
        {
          "internalType": "bytes32",
          "name": "role",
          "type": "bytes32"
        },
        {
          "internalType": "address",
          "name": "account",
          "type": "address"
        }
      ],
      "name": "renounceRole",
      "outputs": [],
      "stateMutability": "nonpayable",
      "type": "function"
    },
    {
      "inputs": [
        {
          "internalType": "bytes32",
          "name": "role",
          "type": "bytes32"
        },
        {
          "internalType": "address",
          "name": "account",
          "type": "address"
        }
      ],
      "name": "revokeRole",
      "outputs": [],
      "stateMutability": "nonpayable",
      "type": "function"
    },
    {
      "inputs": [],
      "name": "round",
      "outputs": [
        {
          "internalType": "uint256",
          "name": "",
          "type": "uint256"
        }
      ],
      "stateMutability": "view",
      "type": "function"
    },
    {
      "inputs": [
        {
          "internalType": "uint256",
          "name": "",
          "type": "uint256"
        }
      ],
      "name": "roundDetail",
      "outputs": [
        {
          "internalType": "uint256",
          "name": "listingTime",
          "type": "uint256"
        },
        {
          "internalType": "uint256",
          "name": "cliffTime",
          "type": "uint256"
        },
        {
          "internalType": "uint256",
          "name": "roundPrice",
          "type": "uint256"
        },
        {
          "internalType": "uint256",
          "name": "maxSupply",
          "type": "uint256"
        },
        {
          "internalType": "uint256",
          "name": "totalSellToken",
          "type": "uint256"
        },
        {
          "internalType": "uint256",
          "name": "totalPaymentToken",
          "type": "uint256"
        },
        {
          "internalType": "uint256",
          "name": "totalCommission",
          "type": "uint256"
        },
        {
          "internalType": "uint256",
          "name": "vestingPercent",
          "type": "uint256"
        },
        {
          "internalType": "bool",
          "name": "enableSale",
          "type": "bool"
        },
        {
          "internalType": "bool",
          "name": "enableClaim",
          "type": "bool"
        }
      ],
      "stateMutability": "view",
      "type": "function"
    },
    {
      "inputs": [
        {
          "internalType": "uint256",
          "name": "_lockTime",
          "type": "uint256"
        }
      ],
      "name": "setLockTime",
      "outputs": [],
      "stateMutability": "nonpayable",
      "type": "function"
    },
    {
      "inputs": [
        {
          "internalType": "address",
          "name": "_address",
          "type": "address"
        }
      ],
      "name": "setReceiver",
      "outputs": [],
      "stateMutability": "nonpayable",
      "type": "function"
    },
    {
      "inputs": [
        {
          "internalType": "uint256[]",
          "name": "_refReward",
          "type": "uint256[]"
        }
      ],
      "name": "setRefReward",
      "outputs": [],
      "stateMutability": "nonpayable",
      "type": "function"
    },
    {
      "inputs": [
        {
          "internalType": "uint256",
          "name": "_round",
          "type": "uint256"
        },
        {
          "internalType": "uint256",
          "name": "_listingTime",
          "type": "uint256"
        },
        {
          "internalType": "uint256",
          "name": "_cliffTime",
          "type": "uint256"
        },
        {
          "internalType": "uint256",
          "name": "_roundPrice",
          "type": "uint256"
        },
        {
          "internalType": "uint256",
          "name": "_maxSupply",
          "type": "uint256"
        },
        {
          "internalType": "uint256",
          "name": "_totalSellToken",
          "type": "uint256"
        },
        {
          "internalType": "uint256",
          "name": "_totalPaymentToken",
          "type": "uint256"
        },
        {
          "internalType": "uint256",
          "name": "_totalCommission",
          "type": "uint256"
        },
        {
          "internalType": "uint256",
          "name": "_vestingPercent",
          "type": "uint256"
        },
        {
          "internalType": "bool",
          "name": "_enableSale",
          "type": "bool"
        },
        {
          "internalType": "bool",
          "name": "_enableClaim",
          "type": "bool"
        }
      ],
      "name": "setRound",
      "outputs": [],
      "stateMutability": "nonpayable",
      "type": "function"
    },
    {
      "inputs": [
        {
          "internalType": "uint256",
          "name": "_round",
          "type": "uint256"
        }
      ],
      "name": "setRoundNumber",
      "outputs": [],
      "stateMutability": "nonpayable",
      "type": "function"
    },
    {
      "inputs": [
        {
          "internalType": "address",
          "name": "_token",
          "type": "address"
        }
      ],
      "name": "setToken",
      "outputs": [],
      "stateMutability": "nonpayable",
      "type": "function"
    },
    {
      "inputs": [
        {
          "internalType": "address",
          "name": "_tokenPayment",
          "type": "address"
        }
      ],
      "name": "setTokenPayment",
      "outputs": [],
      "stateMutability": "nonpayable",
      "type": "function"
    },
    {
      "inputs": [
        {
          "internalType": "address",
          "name": "_newAddress",
          "type": "address"
        }
      ],
      "name": "setUser",
      "outputs": [],
      "stateMutability": "nonpayable",
      "type": "function"
    },
    {
      "inputs": [
        {
          "internalType": "uint256",
          "name": "_round",
          "type": "uint256"
        },
        {
          "internalType": "address",
          "name": "_wallet",
          "type": "address"
        },
        {
          "internalType": "uint256",
          "name": "_roundPrice",
          "type": "uint256"
        },
        {
          "internalType": "uint256",
          "name": "_amountToken",
          "type": "uint256"
        },
        {
          "internalType": "uint256",
          "name": "_amountPaymentToken",
          "type": "uint256"
        },
        {
          "internalType": "uint256",
          "name": "_amountClaimed",
          "type": "uint256"
        },
        {
          "internalType": "uint256",
          "name": "_userNextClaim",
          "type": "uint256"
        }
      ],
      "name": "setUserRoundDetail",
      "outputs": [],
      "stateMutability": "nonpayable",
      "type": "function"
    },
    {
      "inputs": [
        {
          "internalType": "address",
          "name": "_wallet",
          "type": "address"
        },
        {
          "internalType": "uint256",
          "name": "_amountToken",
          "type": "uint256"
        },
        {
          "internalType": "uint256",
          "name": "_amountPaymentToken",
          "type": "uint256"
        },
        {
          "internalType": "uint256",
          "name": "_amountCommission",
          "type": "uint256"
        },
        {
          "internalType": "uint256",
          "name": "_amountClaimed",
          "type": "uint256"
        }
      ],
      "name": "setUserStatistic",
      "outputs": [],
      "stateMutability": "nonpayable",
      "type": "function"
    },
    {
      "inputs": [
        {
          "internalType": "bytes4",
          "name": "interfaceId",
          "type": "bytes4"
        }
      ],
      "name": "supportsInterface",
      "outputs": [
        {
          "internalType": "bool",
          "name": "",
          "type": "bool"
        }
      ],
      "stateMutability": "view",
      "type": "function"
    },
    {
      "inputs": [],
      "name": "tokenPayment",
      "outputs": [
        {
          "internalType": "address",
          "name": "",
          "type": "address"
        }
      ],
      "stateMutability": "view",
      "type": "function"
    },
    {
      "inputs": [],
      "name": "unpause",
      "outputs": [],
      "stateMutability": "nonpayable",
      "type": "function"
    },
    {
      "inputs": [
        {
          "internalType": "address",
          "name": "",
          "type": "address"
        },
        {
          "internalType": "uint256",
          "name": "",
          "type": "uint256"
        }
      ],
      "name": "userRoundDetail",
      "outputs": [
        {
          "internalType": "uint256",
          "name": "roundPrice",
          "type": "uint256"
        },
        {
          "internalType": "uint256",
          "name": "amountToken",
          "type": "uint256"
        },
        {
          "internalType": "uint256",
          "name": "amountPaymentToken",
          "type": "uint256"
        },
        {
          "internalType": "uint256",
          "name": "amountClaimed",
          "type": "uint256"
        },
        {
          "internalType": "uint256",
          "name": "userNextClaim",
          "type": "uint256"
        }
      ],
      "stateMutability": "view",
      "type": "function"
    },
    {
      "inputs": [
        {
          "internalType": "address",
          "name": "",
          "type": "address"
        }
      ],
      "name": "userStatistic",
      "outputs": [
        {
          "internalType": "uint256",
          "name": "amountToken",
          "type": "uint256"
        },
        {
          "internalType": "uint256",
          "name": "amountPaymentToken",
          "type": "uint256"
        },
        {
          "internalType": "uint256",
          "name": "amountCommission",
          "type": "uint256"
        },
        {
          "internalType": "uint256",
          "name": "amountClaimed",
          "type": "uint256"
        }
      ],
      "stateMutability": "view",
      "type": "function"
    },
    {
      "stateMutability": "payable",
      "type": "receive"
    }
  ],
  "bytecode": "0x600680546001600160a01b031990811673a59b923ed75813d2cc219e72918ea6f39af540fa1790915560078054821673c50761cb9833e0ecefd95649884747b0cb0674f517815560088054831673fabdf6f38173af1ca73a7786d449eb25b96f60d5179055600980549092167302698de0f5af55fd4400ed7b8bdd0777b1b777521790915560c0604052608090815266546f6e6361707960c81b60a052600a90620000ab908262000631565b506040805160608101825260058152600360208201819052600292820192909252620000db91600b91906200051e565b506000600c5562278d00600d55348015620000f557600080fd5b506001805460ff191681556002556200012f7f58c8e11deab7910e89bf18a1168c6e6ef28748f00fd3094549459f01cec5e0aa336200047d565b6200013c6000336200047d565b60405180610140016040528060008152602001600081526020016548c27395000081526020016b2863c1f5cdae42f9540000008152602001600081526020016000815260200160008152602001600381526020016000151581526020016000151581525060056000808152602001908152602001600020600082015181600001556020820151816001015560408201518160020155606082015181600301556080820151816004015560a0820151816005015560c0820151816006015560e082015181600701556101008201518160080160006101000a81548160ff0219169083151502179055506101208201518160080160016101000a81548160ff0219169083151502179055509050506040518061014001604052806000815260200160008152602001656d23ad5f800081526020016b35da57f2679303f71aaaaaaa81526020016b2b15132852dc032c1555555581526020016a0152d02c7e14af6800000081526020016000815260200160038152602001600015158152602001600015158152506005600060018152602001908152602001600020600082015181600001556020820151816001015560408201518160020155606082015181600301556080820151816004015560a0820151816005015560c0820151816006015560e082015181600701556101008201518160080160006101000a81548160ff0219169083151502179055506101208201518160080160016101000a81548160ff0219169083151502179055509050506040518061014001604052806000815260200160008152602001659184e72a000081526020016b2863c1f5cdae42f954000000815260200160008152602001600081526020016000815260200160038152602001600115158152602001600015158152506005600060028152602001908152602001600020600082015181600001556020820151816001015560408201518160020155606082015181600301556080820151816004015560a0820151816005015560c0820151816006015560e082015181600701556101008201518160080160006101000a81548160ff0219169083151502179055506101208201518160080160016101000a81548160ff021916908315150217905550905050620006fd565b6000828152602081815260408083206001600160a01b038516845290915290205460ff166200051a576000828152602081815260408083206001600160a01b03851684529091529020805460ff19166001179055620004d93390565b6001600160a01b0316816001600160a01b0316837f2f8788117e7eff1d82e926ec794901d17c78024a50270940304540a733656f0d60405160405180910390a45b5050565b82805482825590600052602060002090810192821562000561579160200282015b8281111562000561578251829060ff169055916020019190600101906200053f565b506200056f92915062000573565b5090565b5b808211156200056f576000815560010162000574565b634e487b7160e01b600052604160045260246000fd5b600181811c90821680620005b557607f821691505b602082108103620005d657634e487b7160e01b600052602260045260246000fd5b50919050565b601f8211156200062c576000816000526020600020601f850160051c81016020861015620006075750805b601f850160051c820191505b81811015620006285782815560010162000613565b5050505b505050565b81516001600160401b038111156200064d576200064d6200058a565b62000665816200065e8454620005a0565b84620005dc565b602080601f8311600181146200069d5760008415620006845750858301515b600019600386901b1c1916600185901b17855562000628565b600085815260208120601f198616915b82811015620006ce57888601518255948401946001909101908401620006ad565b5085821015620006ed5787850151600019600388901b60f8161c191681555b5050505050600190811b01905550565b612631806200070d6000396000f3fe60806040526004361061024a5760003560e01c8063832880e711610139578063a9e7c2e5116100b6578063d547741f1161007a578063d547741f14610818578063e51198c314610838578063ee8e314414610856578063f1516f87146108b8578063f7260d3e1461090b578063fa4bb1651461092b57600080fd5b8063a9e7c2e5146106e2578063ae04d45d14610702578063c0a4d64d14610722578063c1e3425f14610737578063d4679e731461075757600080fd5b806391d14854116100fd57806391d1485414610642578063a217fddf14610662578063a4f3a7c714610677578063a8504c8f14610697578063a9896b56146106c457600080fd5b8063832880e7146105af5780638456cb59146105cd578063858ced35146105e2578063887443aa146106025780638a06ec281461062257600080fd5b806334b4e625116101c75780636b9c71ea1161018b5780636b9c71ea14610458578063718da7ee146104ba57806379621b2a146104da5780637f7650eb1461055557806381e167cf1461057757600080fd5b806334b4e625146103b757806336568abe146103eb57806337e429be1461040b5780633f4ba83a1461042b5780635c975abb1461044057600080fd5b8063146ca5311161020e578063146ca531146103115780631c584ebd14610327578063248a9ca3146103475780632f2ff15d14610377578063341095331461039757600080fd5b806301af88ab1461025657806301ffc9a714610289578063057466ea146102b95780630d668087146102db578063144fa6d7146102f157600080fd5b3661025157005b600080fd5b34801561026257600080fd5b50610276610271366004611f35565b61094b565b6040519081526020015b60405180910390f35b34801561029557600080fd5b506102a96102a4366004611f4e565b61096c565b6040519015158152602001610280565b3480156102c557600080fd5b506102d96102d4366004611f78565b6109a3565b005b3480156102e757600080fd5b50610276600d5481565b3480156102fd57600080fd5b506102d961030c366004611faf565b610f14565b34801561031d57600080fd5b50610276600c5481565b34801561033357600080fd5b506102d9610342366004611fcc565b610f42565b34801561035357600080fd5b50610276610362366004611f35565b60009081526020819052604090206001015490565b34801561038357600080fd5b506102d9610392366004612025565b610f92565b3480156103a357600080fd5b506102d96103b2366004612063565b610fbc565b3480156103c357600080fd5b506102767f58c8e11deab7910e89bf18a1168c6e6ef28748f00fd3094549459f01cec5e0aa81565b3480156103f757600080fd5b506102d9610406366004612025565b61108b565b34801561041757600080fd5b506102d9610426366004611faf565b611105565b34801561043757600080fd5b506102d96111f5565b34801561044c57600080fd5b5060015460ff166102a9565b34801561046457600080fd5b5061049a610473366004611faf565b60046020526000908152604090208054600182015460028301546003909301549192909184565b604080519485526020850193909352918301526060820152608001610280565b3480156104c657600080fd5b506102d96104d5366004611faf565b61120b565b3480156104e657600080fd5b5061052d6104f53660046120f6565b600360208181526000938452604080852090915291835291208054600182015460028301549383015460049093015491939092909185565b604080519586526020860194909452928401919091526060830152608082015260a001610280565b34801561056157600080fd5b5061056a611239565b6040516102809190612146565b34801561058357600080fd5b50600954610597906001600160a01b031681565b6040516001600160a01b039091168152602001610280565b3480156105bb57600080fd5b506009546001600160a01b0316610597565b3480156105d957600080fd5b506102d96112c7565b3480156105ee57600080fd5b506102d96105fd366004611faf565b6112da565b34801561060e57600080fd5b506102d961061d366004612179565b611308565b34801561062e57600080fd5b506102d961063d3660046121d3565b611343565b34801561064e57600080fd5b506102a961065d366004612025565b611361565b34801561066e57600080fd5b50610276600081565b34801561068357600080fd5b50600854610597906001600160a01b031681565b3480156106a357600080fd5b506106b76106b2366004611f35565b61138a565b6040516102809190612291565b3480156106d057600080fd5b506006546001600160a01b0316610597565b3480156106ee57600080fd5b506102d96106fd366004611f35565b611473565b34801561070e57600080fd5b506102d961071d366004611f35565b6118b0565b34801561072e57600080fd5b50600d54610276565b34801561074357600080fd5b506102d9610752366004611faf565b6118c1565b34801561076357600080fd5b506107ca610772366004611f35565b6005602081905260009182526040909120805460018201546002830154600384015460048501549585015460068601546007870154600890970154959794969395929493919290919060ff808216916101009004168a565b604080519a8b5260208b0199909952978901969096526060880194909452608087019290925260a086015260c085015260e08401521515610100830152151561012082015261014001610280565b34801561082457600080fd5b506102d9610833366004612025565b6118ef565b34801561084457600080fd5b506008546001600160a01b0316610597565b34801561086257600080fd5b50610876610871366004612025565b611914565b6040516102809190600060a082019050825182526020830151602083015260408301516040830152606083015160608301526080830151608083015292915050565b3480156108c457600080fd5b506108d86108d3366004611faf565b6119a5565b60405161028091908151815260208083015190820152604080830151908201526060918201519181019190915260800190565b34801561091757600080fd5b50600754610597906001600160a01b031681565b34801561093757600080fd5b506102d9610946366004611f35565b611a1e565b600b818154811061095b57600080fd5b600091825260209091200154905081565b60006001600160e01b03198216637965db0b60e01b148061099d57506301ffc9a760e01b6001600160e01b03198316145b92915050565b6109ab611a2f565b6109b3611a77565b60008281526005602090815260408083203380855260038452828520878652845282852090855260049093529220600883015460ff16610a2f5760405162461bcd60e51b815260206004820152601260248201527153616c65206973206e6f7420656e61626c6560701b60448201526064015b60405180910390fd5b60028301548490600090610a5590610a4f84670de0b6b3a7640000611ace565b90611ae1565b90508460030154818660040154610a6c9190612321565b10610a7e5760088501805460ff191690555b8460020154861015610ac45760405162461bcd60e51b815260206004820152600f60248201526e26b4b710313abc9018903a37b5b2b760891b6044820152606401610a26565b6008546040516370a0823160e01b815233600482015287916001600160a01b0316906370a0823190602401602060405180830381865afa158015610b0c573d6000803e3d6000fd5b505050506040513d601f19601f82011682018060405250810190610b309190612334565b1015610b755760405162461bcd60e51b8152602060048201526014602482015273496e73756666696369656e742062616c616e636560601b6044820152606401610a26565b600954604051635a7db53360e01b81523360048201526000916001600160a01b031690635a7db53390602401602060405180830381865afa158015610bbe573d6000803e3d6000fd5b505050506040513d601f19601f82011682018060405250810190610be2919061234d565b905060005b600b54811015610dc6576001600160a01b03821615610dbe576000610c376064610a4f600b8581548110610c1d57610c1d61236a565b90600052602060002001548c611ace90919063ffffffff16565b9050610c438582611aed565b6008546040516323b872dd60e01b81523360048201526001600160a01b038681166024830152604482018590529297509116906323b872dd906064016020604051808303816000875af1158015610c9e573d6000803e3d6000fd5b505050506040513d601f19601f82011682018060405250810190610cc29190612380565b50826001600160a01b03167e9ce06606f6c71871c7c1d2c58a3c395de3487f651e8eef52c2890ce643d2be82600a604051610cfe92919061247b565b60405180910390a26001600160a01b03831660009081526004602052604090206002810154610d2d9083611af9565b6002820155600954604051635a7db53360e01b81526001600160a01b03868116600483015290911690635a7db53390602401602060405180830381865afa158015610d7c573d6000803e3d6000fd5b505050506040513d601f19601f82011682018060405250810190610da0919061234d565b935081896006016000828254610db69190612321565b909155505050505b600101610be7565b506008546007546040516323b872dd60e01b81523360048201526001600160a01b039182166024820152604481018690529116906323b872dd906064016020604051808303816000875af1158015610e22573d6000803e3d6000fd5b505050506040513d601f19601f82011682018060405250810190610e469190612380565b507ff3876bf1022d86bb6dd7482f5b6e7ec4f8bfa2fb9a27cbef67c0a1ec0912a2e78888848960020154600a604051610e8395949392919061249c565b60405180910390a16004860154610e9a9083611af9565b60048701556005860154610eae9088611af9565b60058701556001850154610ec29083611af9565b60018601558354610ed39083611af9565b84556002850154610ee49088611af9565b60028601556001840154610ef89088611af9565b60019485015550505060029283015490915590555050565b5050565b6000610f1f81611b05565b50600680546001600160a01b0319166001600160a01b0392909216919091179055565b6000610f4d81611b05565b506001600160a01b0390951660009081526003602081815260408084209984529890529690209384556001840192909255600283015592810192909255600490910155565b600082815260208190526040902060010154610fad81611b05565b610fb78383611b0f565b505050565b6000610fc781611b05565b5060408051610140810182529a8b526020808c019a8b528b8201998a5260608c0198895260808c0197885260a08c0196875260c08c0195865260e08c01948552921515610100808d019182529215156101208d0190815260009d8e5260059485905291909c209a518b55985160018b0155965160028a01559451600389015592516004880155905192860192909255905160068501555160078401559251600890920180549151151590930261ff00199215159290921661ffff1990911617179055565b6001600160a01b03811633146110fb5760405162461bcd60e51b815260206004820152602f60248201527f416363657373436f6e74726f6c3a2063616e206f6e6c792072656e6f756e636560448201526e103937b632b9903337b91039b2b63360891b6064820152608401610a26565b610f108282611b93565b600061111081611b05565b6040516370a0823160e01b81523060048201526000906001600160a01b038416906370a0823190602401602060405180830381865afa158015611157573d6000803e3d6000fd5b505050506040513d601f19601f8201168201806040525081019061117b9190612334565b60405163a9059cbb60e01b8152336004820152602481018290529091506001600160a01b0384169063a9059cbb906044016020604051808303816000875af11580156111cb573d6000803e3d6000fd5b505050506040513d601f19601f820116820180604052508101906111ef9190612380565b50505050565b600061120081611b05565b611208611bf8565b50565b600061121681611b05565b50600780546001600160a01b0319166001600160a01b0392909216919091179055565b600a80546112469061239d565b80601f01602080910402602001604051908101604052809291908181526020018280546112729061239d565b80156112bf5780601f10611294576101008083540402835291602001916112bf565b820191906000526020600020905b8154815290600101906020018083116112a257829003601f168201915b505050505081565b60006112d281611b05565b611208611c4a565b60006112e581611b05565b50600980546001600160a01b0319166001600160a01b0392909216919091179055565b600061131381611b05565b506001600160a01b0390941660009081526004602052604090209283556001830191909155600282015560030155565b600061134e81611b05565b8151610fb790600b906020850190611ed5565b6000918252602082815260408084206001600160a01b0393909316845291905290205460ff1690565b6113e460405180610140016040528060008152602001600081526020016000815260200160008152602001600081526020016000815260200160008152602001600081526020016000151581526020016000151581525090565b506000908152600560208181526040928390208351610140810185528154815260018201549281019290925260028101549382019390935260038301546060820152600483015460808201529082015460a0820152600682015460c0820152600782015460e082015260089091015460ff80821615156101008085019190915290910416151561012082015290565b61147b611a2f565b611483611a77565b600081815260056020818152604080842081516101408101835281548152600182015481850152600282015481840152600380830154606083015260048084015460808401529583015460a0830152600683015460c0830152600783015460e083015260089092015460ff808216151561010080850191909152909104161515610120820190815233808852928552838720888852855283872092875294909352932091519092919061156b5760405162461bcd60e51b815260206004820152601060248201526f436c61696d206e6f7420656e61626c6560801b6044820152606401610a26565b826020015142101561158f5760405162461bcd60e51b8152600401610a26906124d2565b82602001516000036115d85760405162461bcd60e51b815260206004820152601260248201527110db1a5999881d1a5b59481b9bdd081cd95d60721b6044820152606401610a26565b816004015460000361160d5742836020015111156116085760405162461bcd60e51b8152600401610a26906124d2565b611631565b42826004015411156116315760405162461bcd60e51b8152600401610a26906124d2565b600182015460e084015160009061165090606490610a4f908590611ace565b6006546040516370a0823160e01b815230600482015291925082916001600160a01b03909116906370a0823190602401602060405180830381865afa15801561169d573d6000803e3d6000fd5b505050506040513d601f19601f820116820180604052508101906116c19190612334565b101561170f5760405162461bcd60e51b815260206004820152601b60248201527f436f6e7472616374206e6f7420656e6f7567682062616c616e636500000000006044820152606401610a26565b818460030154106117595760405162461bcd60e51b8152602060048201526014602482015273165bdd481a185d994818db185a5b595908185b1b60621b6044820152606401610a26565b8181856003015461176a9190612321565b1115611783576003840154611780908390611aed565b90505b60038401546117929082611af9565b600385015560065460405163a9059cbb60e01b8152336004820152602481018390526001600160a01b039091169063a9059cbb906044016020604051808303816000875af11580156117e8573d6000803e3d6000fd5b505050506040513d601f19601f8201168201806040525081019061180c9190612380565b507ff64543e168bec749762f41bc7ee32f7980075d9a7fd39a57b28f901b66db33eb8682600a604051611841939291906124fb565b60405180910390a160038301546118589082611af9565b6003840155600484015460000361188557600d54856020015161187b9190612321565b60048501556118a1565b600d5484600401600082825461189b9190612321565b90915550505b50505050506112086001600255565b60006118bb81611b05565b50600d55565b60006118cc81611b05565b50600880546001600160a01b0319166001600160a01b0392909216919091179055565b60008281526020819052604090206001015461190a81611b05565b610fb78383611b93565b6119466040518060a0016040528060008152602001600081526020016000815260200160008152602001600081525090565b506001600160a01b0316600090815260036020818152604080842094845293815291839020835160a081018552815481526001820154938101939093526002810154938301939093528201546060820152600490910154608082015290565b6119d06040518060800160405280600081526020016000815260200160008152602001600081525090565b506001600160a01b0316600090815260046020908152604091829020825160808101845281548152600182015492810192909252600281015492820192909252600390910154606082015290565b6000611a2981611b05565b50600c55565b60015460ff1615611a755760405162461bcd60e51b815260206004820152601060248201526f14185d5cd8589b194e881c185d5cd95960821b6044820152606401610a26565b565b6002805403611ac85760405162461bcd60e51b815260206004820152601f60248201527f5265656e7472616e637947756172643a207265656e7472616e742063616c6c006044820152606401610a26565b60028055565b6000611ada8284612523565b9392505050565b6000611ada828461253a565b6000611ada828461255c565b6000611ada8284612321565b6112088133611c85565b611b198282611361565b610f10576000828152602081815260408083206001600160a01b03851684529091529020805460ff19166001179055611b4f3390565b6001600160a01b0316816001600160a01b0316837f2f8788117e7eff1d82e926ec794901d17c78024a50270940304540a733656f0d60405160405180910390a45050565b611b9d8282611361565b15610f10576000828152602081815260408083206001600160a01b0385168085529252808320805460ff1916905551339285917ff6391f5c32d9c69d2a47ea670b442974b53935d1edc7fd64eb21e047a839171b9190a45050565b611c00611cde565b6001805460ff191690557f5db9ee0a495bf2e6ff9c91a7834c1ba4fdd244a5e8aa4e537bd38aeae4b073aa335b6040516001600160a01b03909116815260200160405180910390a1565b611c52611a2f565b6001805460ff1916811790557f62e78cea01bee320cd4e420270b5ea74000d11b0c9f74754ebdbfc544b05a25833611c2d565b611c8f8282611361565b610f1057611c9c81611d27565b611ca7836020611d39565b604051602001611cb892919061256f565b60408051601f198184030181529082905262461bcd60e51b8252610a2691600401612146565b60015460ff16611a755760405162461bcd60e51b815260206004820152601460248201527314185d5cd8589b194e881b9bdd081c185d5cd95960621b6044820152606401610a26565b606061099d6001600160a01b03831660145b60606000611d48836002612523565b611d53906002612321565b67ffffffffffffffff811115611d6b57611d6b6121bd565b6040519080825280601f01601f191660200182016040528015611d95576020820181803683370190505b509050600360fc1b81600081518110611db057611db061236a565b60200101906001600160f81b031916908160001a905350600f60fb1b81600181518110611ddf57611ddf61236a565b60200101906001600160f81b031916908160001a9053506000611e03846002612523565b611e0e906001612321565b90505b6001811115611e86576f181899199a1a9b1b9c1cb0b131b232b360811b85600f1660108110611e4257611e4261236a565b1a60f81b828281518110611e5857611e5861236a565b60200101906001600160f81b031916908160001a90535060049490941c93611e7f816125e4565b9050611e11565b508315611ada5760405162461bcd60e51b815260206004820181905260248201527f537472696e67733a20686578206c656e67746820696e73756666696369656e746044820152606401610a26565b828054828255906000526020600020908101928215611f10579160200282015b82811115611f10578251825591602001919060010190611ef5565b50611f1c929150611f20565b5090565b5b80821115611f1c5760008155600101611f21565b600060208284031215611f4757600080fd5b5035919050565b600060208284031215611f6057600080fd5b81356001600160e01b031981168114611ada57600080fd5b60008060408385031215611f8b57600080fd5b50508035926020909101359150565b6001600160a01b038116811461120857600080fd5b600060208284031215611fc157600080fd5b8135611ada81611f9a565b600080600080600080600060e0888a031215611fe757600080fd5b873596506020880135611ff981611f9a565b96999698505050506040850135946060810135946080820135945060a0820135935060c0909101359150565b6000806040838503121561203857600080fd5b82359150602083013561204a81611f9a565b809150509250929050565b801515811461120857600080fd5b60008060008060008060008060008060006101608c8e03121561208557600080fd5b8b359a5060208c0135995060408c0135985060608c0135975060808c0135965060a08c0135955060c08c0135945060e08c013593506101008c013592506101208c01356120d181612055565b91506101408c01356120e281612055565b809150509295989b509295989b9093969950565b6000806040838503121561210957600080fd5b823561211481611f9a565b946020939093013593505050565b60005b8381101561213d578181015183820152602001612125565b50506000910152565b6020815260008251806020840152612165816040850160208701612122565b601f01601f19169190910160400192915050565b600080600080600060a0868803121561219157600080fd5b853561219c81611f9a565b97602087013597506040870135966060810135965060800135945092505050565b634e487b7160e01b600052604160045260246000fd5b600060208083850312156121e657600080fd5b823567ffffffffffffffff808211156121fe57600080fd5b818501915085601f83011261221257600080fd5b813581811115612224576122246121bd565b8060051b604051601f19603f83011681018181108582111715612249576122496121bd565b60405291825284820192508381018501918883111561226757600080fd5b938501935b828510156122855784358452938501939285019261226c565b98975050505050505050565b600061014082019050825182526020830151602083015260408301516040830152606083015160608301526080830151608083015260a083015160a083015260c083015160c083015260e083015160e0830152610100808401516122f88285018215159052565b5050610120928301511515919092015290565b634e487b7160e01b600052601160045260246000fd5b8082018082111561099d5761099d61230b565b60006020828403121561234657600080fd5b5051919050565b60006020828403121561235f57600080fd5b8151611ada81611f9a565b634e487b7160e01b600052603260045260246000fd5b60006020828403121561239257600080fd5b8151611ada81612055565b600181811c908216806123b157607f821691505b6020821081036123d157634e487b7160e01b600052602260045260246000fd5b50919050565b8054600090600181811c90808316806123f157607f831692505b6020808410820361241257634e487b7160e01b600052602260045260246000fd5b8388526020880182801561242d57600181146124435761246e565b60ff198716825285151560051b8201975061246e565b60008981526020902060005b878110156124685781548482015290860190840161244f565b83019850505b5050505050505092915050565b82815260406020820152600061249460408301846123d7565b949350505050565b85815284602082015283604082015282606082015260a0608082015260006124c760a08301846123d7565b979650505050505050565b6020808252600f908201526e436c61696d206e6f7420726561647960881b604082015260600190565b83815282602082015260606040820152600061251a60608301846123d7565b95945050505050565b808202811582820484141761099d5761099d61230b565b60008261255757634e487b7160e01b600052601260045260246000fd5b500490565b8181038181111561099d5761099d61230b565b7f416363657373436f6e74726f6c3a206163636f756e74200000000000000000008152600083516125a7816017850160208801612122565b7001034b99036b4b9b9b4b733903937b6329607d1b60179184019182015283516125d8816028840160208801612122565b01602801949350505050565b6000816125f3576125f361230b565b50600019019056fea26469706673582212205151a74c7f37e7751192d8db0829a6be13d14567046ade1638489a1d765cd6f964736f6c63430008180033",
  "linkReferences": {},
  "deployedLinkReferences": {}
}