{
  "_format": "hh-sol-artifact-1",
  "contractName": "User",
  "sourceName": "contracts/User.sol",
  "abi": [
    {
      "inputs": [],
      "stateMutability": "nonpayable",
      "type": "constructor"
    },
    {
      "anonymous": false,
      "inputs": [
        {
          "indexed": true,
          "internalType": "address",
          "name": "account",
          "type": "address"
        },
        {
          "indexed": true,
          "internalType": "address",
          "name": "ref",
          "type": "address"
        }
      ],
      "name": "NewReferral",
      "type": "event"
    },
    {
      "anonymous": false,
      "inputs": [
        {
          "indexed": true,
          "internalType": "bytes32",
          "name": "role",
          "type": "bytes32"
        },
        {
          "indexed": true,
          "internalType": "bytes32",
          "name": "previousAdminRole",
          "type": "bytes32"
        },
        {
          "indexed": true,
          "internalType": "bytes32",
          "name": "newAdminRole",
          "type": "bytes32"
        }
      ],
      "name": "RoleAdminChanged",
      "type": "event"
    },
    {
      "anonymous": false,
      "inputs": [
        {
          "indexed": true,
          "internalType": "bytes32",
          "name": "role",
          "type": "bytes32"
        },
        {
          "indexed": true,
          "internalType": "address",
          "name": "account",
          "type": "address"
        },
        {
          "indexed": true,
          "internalType": "address",
          "name": "sender",
          "type": "address"
        }
      ],
      "name": "RoleGranted",
      "type": "event"
    },
    {
      "anonymous": false,
      "inputs": [
        {
          "indexed": true,
          "internalType": "bytes32",
          "name": "role",
          "type": "bytes32"
        },
        {
          "indexed": true,
          "internalType": "address",
          "name": "account",
          "type": "address"
        },
        {
          "indexed": true,
          "internalType": "address",
          "name": "sender",
          "type": "address"
        }
      ],
      "name": "RoleRevoked",
      "type": "event"
    },
    {
      "anonymous": false,
      "inputs": [
        {
          "indexed": true,
          "internalType": "address",
          "name": "account",
          "type": "address"
        },
        {
          "indexed": true,
          "internalType": "address",
          "name": "ref",
          "type": "address"
        }
      ],
      "name": "UpdateRefUser",
      "type": "event"
    },
    {
      "inputs": [],
      "name": "DEFAULT_ADMIN_ROLE",
      "outputs": [
        {
          "internalType": "bytes32",
          "name": "",
          "type": "bytes32"
        }
      ],
      "stateMutability": "view",
      "type": "function"
    },
    {
      "inputs": [],
      "name": "MODERATOR",
      "outputs": [
        {
          "internalType": "bytes32",
          "name": "",
          "type": "bytes32"
        }
      ],
      "stateMutability": "view",
      "type": "function"
    },
    {
      "inputs": [
        {
          "internalType": "address",
          "name": "_tokenAddress",
          "type": "address"
        }
      ],
      "name": "clearUnknownToken",
      "outputs": [],
      "stateMutability": "nonpayable",
      "type": "function"
    },
    {
      "inputs": [
        {
          "internalType": "address",
          "name": "_account",
          "type": "address"
        }
      ],
      "name": "getListRefLength",
      "outputs": [
        {
          "internalType": "uint256",
          "name": "",
          "type": "uint256"
        }
      ],
      "stateMutability": "view",
      "type": "function"
    },
    {
      "inputs": [
        {
          "internalType": "address",
          "name": "account",
          "type": "address"
        }
      ],
      "name": "getRef",
      "outputs": [
        {
          "internalType": "address",
          "name": "",
          "type": "address"
        }
      ],
      "stateMutability": "view",
      "type": "function"
    },
    {
      "inputs": [
        {
          "internalType": "bytes32",
          "name": "role",
          "type": "bytes32"
        }
      ],
      "name": "getRoleAdmin",
      "outputs": [
        {
          "internalType": "bytes32",
          "name": "",
          "type": "bytes32"
        }
      ],
      "stateMutability": "view",
      "type": "function"
    },
    {
      "inputs": [
        {
          "internalType": "bytes32",
          "name": "role",
          "type": "bytes32"
        },
        {
          "internalType": "address",
          "name": "account",
          "type": "address"
        }
      ],
      "name": "grantRole",
      "outputs": [],
      "stateMutability": "nonpayable",
      "type": "function"
    },
    {
      "inputs": [
        {
          "internalType": "bytes32",
          "name": "role",
          "type": "bytes32"
        },
        {
          "internalType": "address",
          "name": "account",
          "type": "address"
        }
      ],
      "name": "hasRole",
      "outputs": [
        {
          "internalType": "bool",
          "name": "",
          "type": "bool"
        }
      ],
      "stateMutability": "view",
      "type": "function"
    },
    {
      "inputs": [
        {
          "internalType": "address",
          "name": "account",
          "type": "address"
        }
      ],
      "name": "isRegister",
      "outputs": [
        {
          "internalType": "bool",
          "name": "",
          "type": "bool"
        }
      ],
      "stateMutability": "view",
      "type": "function"
    },
    {
      "inputs": [
        {
          "internalType": "address",
          "name": "",
          "type": "address"
        },
        {
          "internalType": "uint256",
          "name": "",
          "type": "uint256"
        }
      ],
      "name": "listRef",
      "outputs": [
        {
          "internalType": "address",
          "name": "",
          "type": "address"
        }
      ],
      "stateMutability": "view",
      "type": "function"
    },
    {
      "inputs": [
        {
          "internalType": "address",
          "name": "",
          "type": "address"
        }
      ],
      "name": "referrers",
      "outputs": [
        {
          "internalType": "address",
          "name": "",
          "type": "address"
        }
      ],
      "stateMutability": "view",
      "type": "function"
    },
    {
      "inputs": [
        {
          "internalType": "address",
          "name": "_referrer",
          "type": "address"
        }
      ],
      "name": "register",
      "outputs": [],
      "stateMutability": "nonpayable",
      "type": "function"
    },
    {
      "inputs": [
        {
          "internalType": "bytes32",
          "name": "role",
          "type": "bytes32"
        },
        {
          "internalType": "address",
          "name": "account",
          "type": "address"
        }
      ],
      "name": "renounceRole",
      "outputs": [],
      "stateMutability": "nonpayable",
      "type": "function"
    },
    {
      "inputs": [
        {
          "internalType": "bytes32",
          "name": "role",
          "type": "bytes32"
        },
        {
          "internalType": "address",
          "name": "account",
          "type": "address"
        }
      ],
      "name": "revokeRole",
      "outputs": [],
      "stateMutability": "nonpayable",
      "type": "function"
    },
    {
      "inputs": [
        {
          "internalType": "bytes4",
          "name": "interfaceId",
          "type": "bytes4"
        }
      ],
      "name": "supportsInterface",
      "outputs": [
        {
          "internalType": "bool",
          "name": "",
          "type": "bool"
        }
      ],
      "stateMutability": "view",
      "type": "function"
    },
    {
      "inputs": [
        {
          "internalType": "address",
          "name": "account",
          "type": "address"
        },
        {
          "internalType": "address",
          "name": "newRefAccount",
          "type": "address"
        }
      ],
      "name": "updateRefUser",
      "outputs": [],
      "stateMutability": "nonpayable",
      "type": "function"
    },
    {
      "inputs": [
        {
          "internalType": "address",
          "name": "",
          "type": "address"
        }
      ],
      "name": "userRefCount",
      "outputs": [
        {
          "internalType": "uint256",
          "name": "",
          "type": "uint256"
        }
      ],
      "stateMutability": "view",
      "type": "function"
    }
  ],
  "bytecode": "0x608060405234801561001057600080fd5b5033600081815260016020526040902080546001600160a01b0319168217905561005b907f58c8e11deab7910e89bf18a1168c6e6ef28748f00fd3094549459f01cec5e0aa9061006b565b61006660003361006b565b61010a565b6000828152602081815260408083206001600160a01b038516845290915290205460ff16610106576000828152602081815260408083206001600160a01b03851684529091529020805460ff191660011790556100c53390565b6001600160a01b0316816001600160a01b0316837f2f8788117e7eff1d82e926ec794901d17c78024a50270940304540a733656f0d60405160405180910390a45b5050565b611037806101196000396000f3fe608060405234801561001057600080fd5b506004361061010b5760003560e01c806337e429be116100a257806391d148541161007157806391d14854146102a7578063a217fddf146102ba578063b253ff32146102c2578063d547741f146102d5578063e6ae89fc146102e857600080fd5b806337e429be146102145780634420e486146102275780634a3b68cc1461023a5780635a7db5331461027b57600080fd5b80632f2ff15d116100de5780632f2ff15d146101a557806334b4e625146101ba578063357d001a146101e157806336568abe1461020157600080fd5b806301ffc9a71461011057806322fdef9414610138578063248a9ca31461014b57806324ac2e611461017c575b600080fd5b61012361011e366004610d40565b6102fb565b60405190151581526020015b60405180910390f35b610123610146366004610d81565b610332565b61016e610159366004610d9c565b60009081526020819052604090206001015490565b60405190815260200161012f565b61016e61018a366004610d81565b6001600160a01b031660009081526002602052604090205490565b6101b86101b3366004610db5565b610369565b005b61016e7f58c8e11deab7910e89bf18a1168c6e6ef28748f00fd3094549459f01cec5e0aa81565b61016e6101ef366004610d81565b60036020526000908152604090205481565b6101b861020f366004610db5565b610393565b6101b8610222366004610d81565b610416565b6101b8610235366004610d81565b610506565b610263610248366004610d81565b6001602052600090815260409020546001600160a01b031681565b6040516001600160a01b03909116815260200161012f565b610263610289366004610d81565b6001600160a01b039081166000908152600160205260409020541690565b6101236102b5366004610db5565b6106b8565b61016e600081565b6102636102d0366004610de1565b6106e1565b6101b86102e3366004610db5565b610719565b6101b86102f6366004610e0b565b61073e565b60006001600160e01b03198216637965db0b60e01b148061032c57506301ffc9a760e01b6001600160e01b03198316145b92915050565b6001600160a01b038181166000908152600160205260408120549091161561035c57506001919050565b506000919050565b919050565b60008281526020819052604090206001015461038481610a3c565b61038e8383610a49565b505050565b6001600160a01b03811633146104085760405162461bcd60e51b815260206004820152602f60248201527f416363657373436f6e74726f6c3a2063616e206f6e6c792072656e6f756e636560448201526e103937b632b9903337b91039b2b63360891b60648201526084015b60405180910390fd5b6104128282610acd565b5050565b600061042181610a3c565b6040516370a0823160e01b81523060048201526000906001600160a01b038416906370a0823190602401602060405180830381865afa158015610468573d6000803e3d6000fd5b505050506040513d601f19601f8201168201806040525081019061048c9190610e35565b60405163a9059cbb60e01b8152336004820152602481018290529091506001600160a01b0384169063a9059cbb906044016020604051808303816000875af11580156104dc573d6000803e3d6000fd5b505050506040513d601f19601f820116820180604052508101906105009190610e4e565b50505050565b6001600160a01b03811661055c5760405162461bcd60e51b815260206004820152601d60248201527f72656665727265722063616e206e6f742061646472657373207a65726f00000060448201526064016103ff565b336000908152600160205260409020546001600160a01b0316156105b85760405162461bcd60e51b81526020600482015260136024820152721e5bdd481a185d99481c9959da5cdd195c9959606a1b60448201526064016103ff565b6001600160a01b03811633036106105760405162461bcd60e51b815260206004820152601b60248201527f796f752063616e6e6f7420696e74726f64756365206d7973656c66000000000060448201526064016103ff565b33600081815260016020818152604080842080546001600160a01b0388166001600160a01b03199182168117909255818652600284528286208054958601815586528386209094018054909416909517909255928252600390925290812080549161067a83610e86565b90915550506040516001600160a01b0382169033907f965e581fd2224ce85185c5f48cfbcc00e17fa216f970b274fc724888f6b8994a90600090a350565b6000918252602082815260408084206001600160a01b0393909316845291905290205460ff1690565b600260205281600052604060002081815481106106fd57600080fd5b6000918252602090912001546001600160a01b03169150829050565b60008281526020819052604090206001015461073481610a3c565b61038e8383610acd565b7f58c8e11deab7910e89bf18a1168c6e6ef28748f00fd3094549459f01cec5e0aa61076881610a3c565b60005b6001600160a01b0380851660009081526001602090815260408083205490931682526002905220548110156108ff576001600160a01b03808516600081815260016020908152604080832054909416825260029052919091208054839081106107d6576107d6610e9f565b6000918252602090912001546001600160a01b0316036108f7576001600160a01b038481166000908152600160208181526040808420549094168352600290529190208054909161082691610eb5565b8154811061083657610836610e9f565b60009182526020808320909101546001600160a01b038781168452600183526040808520548216855260029093529190922080549190921691908390811061088057610880610e9f565b600091825260208083209190910180546001600160a01b0319166001600160a01b03948516179055868316825260018152604080832054909316825260029052208054806108d0576108d0610ec8565b600082815260209020810160001990810180546001600160a01b03191690550190556108ff565b60010161076b565b506001600160a01b0380841660009081526001602090815260408083205490931682526003905220541561098a576001600160a01b03808416600090815260016020818152604080842054909416835260039052919020546109619190610eb5565b6001600160a01b0380851660009081526001602090815260408083205490931682526003905220555b6001600160a01b0382166000908152600360205260409020546109ae906001610ede565b6001600160a01b03808416600081815260036020908152604080832095909555928716808252600180855285832080546001600160a01b03199081168617909155848452600286528684208054928301815584529483200180549094168117909355925190927fb7e4670dcb6c081d569b35a697d92f983bd1815964d0ab84f487ae5b1e92dfa391a3505050565b610a468133610b32565b50565b610a5382826106b8565b610412576000828152602081815260408083206001600160a01b03851684529091529020805460ff19166001179055610a893390565b6001600160a01b0316816001600160a01b0316837f2f8788117e7eff1d82e926ec794901d17c78024a50270940304540a733656f0d60405160405180910390a45050565b610ad782826106b8565b15610412576000828152602081815260408083206001600160a01b0385168085529252808320805460ff1916905551339285917ff6391f5c32d9c69d2a47ea670b442974b53935d1edc7fd64eb21e047a839171b9190a45050565b610b3c82826106b8565b61041257610b4981610b8b565b610b54836020610b9d565b604051602001610b65929190610f15565b60408051601f198184030181529082905262461bcd60e51b82526103ff91600401610f8a565b606061032c6001600160a01b03831660145b60606000610bac836002610fbd565b610bb7906002610ede565b67ffffffffffffffff811115610bcf57610bcf610fd4565b6040519080825280601f01601f191660200182016040528015610bf9576020820181803683370190505b509050600360fc1b81600081518110610c1457610c14610e9f565b60200101906001600160f81b031916908160001a905350600f60fb1b81600181518110610c4357610c43610e9f565b60200101906001600160f81b031916908160001a9053506000610c67846002610fbd565b610c72906001610ede565b90505b6001811115610cea576f181899199a1a9b1b9c1cb0b131b232b360811b85600f1660108110610ca657610ca6610e9f565b1a60f81b828281518110610cbc57610cbc610e9f565b60200101906001600160f81b031916908160001a90535060049490941c93610ce381610fea565b9050610c75565b508315610d395760405162461bcd60e51b815260206004820181905260248201527f537472696e67733a20686578206c656e67746820696e73756666696369656e7460448201526064016103ff565b9392505050565b600060208284031215610d5257600080fd5b81356001600160e01b031981168114610d3957600080fd5b80356001600160a01b038116811461036457600080fd5b600060208284031215610d9357600080fd5b610d3982610d6a565b600060208284031215610dae57600080fd5b5035919050565b60008060408385031215610dc857600080fd5b82359150610dd860208401610d6a565b90509250929050565b60008060408385031215610df457600080fd5b610dfd83610d6a565b946020939093013593505050565b60008060408385031215610e1e57600080fd5b610e2783610d6a565b9150610dd860208401610d6a565b600060208284031215610e4757600080fd5b5051919050565b600060208284031215610e6057600080fd5b81518015158114610d3957600080fd5b634e487b7160e01b600052601160045260246000fd5b600060018201610e9857610e98610e70565b5060010190565b634e487b7160e01b600052603260045260246000fd5b8181038181111561032c5761032c610e70565b634e487b7160e01b600052603160045260246000fd5b8082018082111561032c5761032c610e70565b60005b83811015610f0c578181015183820152602001610ef4565b50506000910152565b7f416363657373436f6e74726f6c3a206163636f756e7420000000000000000000815260008351610f4d816017850160208801610ef1565b7001034b99036b4b9b9b4b733903937b6329607d1b6017918401918201528351610f7e816028840160208801610ef1565b01602801949350505050565b6020815260008251806020840152610fa9816040850160208701610ef1565b601f01601f19169190910160400192915050565b808202811582820484141761032c5761032c610e70565b634e487b7160e01b600052604160045260246000fd5b600081610ff957610ff9610e70565b50600019019056fea26469706673582212205b1d3460dca164b61a0f740122284212439b52b319ffefeee0b8045bdb757bba64736f6c63430008180033",
  "linkReferences": {},
  "deployedLinkReferences": {}
}